:1000000014C1000040C100003EC100003CC100001E
:100010003AC1000038C1000036C1000034C1000000
:1000200032C1000030C100002EC100002CC1000010
:100030002AC1000028C1000026C1000024C1000020
:1000400022C1000020C100001EC100001CC1000030
:100050001AC1000018C1000016C1000041C4000010
:1000600012C1000007C40000DCC300000CC1000086
:100070000AC1000008C1000006C1000004C1000060
:1000800002C1000000C10000FEC00000FCC0000072
:10009000FAC00000F8C00000F6C00000F4C0000084
:1000A000F2C00000F0C00000EEC00000ECC0000094
:1000B000EAC00000E8C00000E6C00000E4C00000A4
:1000C000E2C00000E0C00000DEC00000DCC00000B4
:1000D000DAC00000D8C00000D6C00000D4C00000C4
:1000E000D2C00000A603A90398039C03A003E00369
:1000F000AD03B103B703BB03BF03C503C903CD03FE
:10010000E003D303D703DB03000020002300260015
:1001100029002C002F00320000010000030106011D
:10012000090100000A0B02090C0D0E080703040167
:1001300000000000000000000000000000000000BF
:10014000000000000000000000000000000012118C
:10015000100000000000000000000000000000008F
:100160000000000000000000000022002500280020
:100170002B002E00310034000201000005010801AF
:100180000B0100002100240027002A002D00300070
:10019000330001010000040107010A0105050505FE
:1001A000070508080808020202020A0A08080404EF
:1001B000040401010101010101010303030303031D
:1001C0000303040707070C0C0C0C0C0C0C0C0202AC
:1001D000020206060606060606060B0B0B0B0B0BA9
:1001E0000B0B010210202008081020401020408036
:1001F00002010201080402010102040810204080EB
:100200008040201008040201800402018040201078
:1002100008040201080402010102040810204080C1
:100220000102040810204080BA0411241FBECFEF41
:10023000D1E2DEBFCDBF00E00CBF23E0ACE3B2E013
:1002400001C01D92A033B207E1F712E0A0E0B2E0D6
:10025000E8ECFEE000E00BBF02C007900D92AC336B
:10026000B107D9F711E0C5E1D1E000E005C0219761
:100270000109802FFE011AD6C431D10780E008079A
:10028000B1F7B7D31FC6BCCEEBE4F2E0A089B189C9
:1002900082E08C93A485B5851C92A685B7858FECEA
:1002A0008C93108EA489B58986E08C93A289B3893A
:1002B0008C9180618C93A289B3898C9188608C9396
:1002C000A289B3898C9180688C930288F389E02D90
:1002D00080818F7D80830895CF92DF92EF92FF928D
:1002E0000F931F93CF93DF936C017A018B01C0E0D2
:1002F000D0E0CE15DF0581F0D8016D918D01D601DA
:10030000ED91FC910190F081E02DC6011995892BAA
:1003100011F02196EECF7E01C701DF91CF911F91A1
:100320000F91FF90EF90DF90CF900895089580E0B7
:1003300090E00895FC01538D448D252F30E0842FEB
:1003400090E0821B930B541710F0CF9608950197FD
:100350000895FC01918D828D981761F0828DDF01E7
:10036000A80FB11D5D968C91928D9F5F9F73928FA8
:1003700090E008958FEF9FEF0895FC01918D828D9D
:10038000981731F0828DE80FF11D858D90E008956A
:100390008FEF9FEF0895FC01918D228D892F90E0C2
:1003A000805C9F4F821B91098F73992708958BE47E
:1003B00092E0F1DF21E0892B09F420E0822F0895FB
:1003C000FC01848DDF01A80FB11DA35ABF4F2C91F2
:1003D000848D90E001968F739927848FA689B789C1
:1003E0002C93A089B1898C91837080648C93938DB8
:1003F000848D981306C00288F389E02D80818F7D5B
:1004000080830895EF92FF920F931F93CF93DF9312
:10041000EC0181E0888F9B8D8C8D981305C0E88955
:10042000F989808185FD25C0F62E0B8D10E00F5FC8
:100430001F4F0F731127E02E8C8DE8120BC00FB6E3
:1004400007FCFACFE889F989808185FFF5CFCE01D5
:10045000B7DFF2CF8B8DFE01E80FF11DE35AFF4F9E
:10046000F0829FB7F8940B8FEA89FB8980818062C4
:100470000AC09FB7F894EE89FF896083E889F989FB
:1004800080818370806480839FBF81E090E0DF91F2
:10049000CF911F910F91FF90EF900895CF93DF932D
:1004A000EC01888D8823C1F0EA89FB89808185FD74
:1004B00005C0A889B9898C9186FD0EC00FB607FCCE
:1004C000F5CF808185FFF2CFA889B9898C9185FF0E
:1004D000EDCFCE0175DFE8CFDF91CF91089580E0B9
:1004E00090E0892B19F063DF811125C080E090E056
:1004F000892B41F080E090E0892B21F00E940000E0
:1005000081111CC080E090E0892B41F080E090E0F8
:10051000892B21F00E940000811113C080E090E03F
:10052000892BA1F080E090E0892B81F00E940000EF
:1005300081110AC008950E940000D8CF0E940000D7
:10054000E1CF0E940000EACF0C94000008953FB76D
:10055000F8948091410290914202A0914302B0919F
:10056000440226B5A89B05C02F3F19F00196A11D96
:10057000B11D3FBFBA2FA92F982F8827820F911D39
:10058000A11DB11DBC01CD0142E0660F771F881F80
:10059000991F4A95D1F708958F929F92AF92BF927B
:1005A000CF92DF92EF92FF926B017C01D0DF4B0183
:1005B0005C01C114D104E104F104E9F0C8DFDC01FD
:1005C000CB0188199909AA09BB09883E9340A10566
:1005D000B10578F321E0C21AD108E108F10888EEEC
:1005E000880E83E0981EA11CB11CC114D104E10443
:1005F000F10421F7DECFFF90EF90DF90CF90BF9016
:10060000AF909F908F9008952FB7F89460913D021E
:1006100070913E0280913F02909140022FBF089559
:100620004DD46115710579F0FB0101900020E9F7C7
:100630003197AF01461B570BDC01ED91FC91028015
:10064000F381E02D199480E090E008958F929F92BD
:10065000AF92BF92EF92FF920F931F93CF93DF93CE
:10066000CDB7DEB7A1970FB6F894DEBF0FBECDBFF2
:100670007C01FA01CB0119A2223008F42AE08E0194
:100680000F5D1F4F822E912CA12CB12CBF01A50113
:100690009401EAD3F901CA01015011096A3014F436
:1006A000605D01C0695CD8016C93232B242B252B42
:1006B00069F7B801C701B5DFA1960FB6F894DEBFA0
:1006C0000FBECDBFDF91CF911F910F91FF90EF90A3
:1006D000BF90AF909F908F900895EF92FF920F93ED
:1006E0001F93CF93DF93C9E2D1E009EE11E093EAC3
:1006F000E92E91E0F92E80914502882309F48AC001
:10070000FE014491F8012491F7019491992309F491
:1007100068C0442309F454C050E0FA013197E23133
:10072000F10508F04DC08827EE58FF4F8F4FBEC32C
:10073000809180008F7707C0809180008F7D03C0FB
:1007400080918000877F809380003AC084B58F7746
:1007500002C084B58F7D84BD33C08091B0008F7797
:1007600003C08091B0008F7D8093B00029C080913C
:1007700090008F7707C0809190008F7D03C080919B
:100780009000877F809390001BC08091A0008F779E
:1007900007C08091A0008F7D03C08091A000877F5B
:1007A0008093A0000DC0809120018F7707C08091B9
:1007B00020018F7D03C080912001877F80932001DD
:1007C000E92FF0E0EE0FFF1FE85FFE4FA591B49117
:1007D0008C91822321E090E009F420E0422F592FF0
:1007E00002C040E050E0052E000C660B770B2AE0BB
:1007F0008BE492E02BDF8BE492E0ABDD809346024A
:10080000813011F4109245026AE070E080E090E0DF
:10081000C3DE71CFDF91CF911F910F91FF90EF90C9
:1008200008951F920F920FB60F9211240BB60F92DC
:100830002F933F934F935F936F937F938F939F93E8
:10084000AF93BF93EF93FF938BE492E0B9DDFF91F9
:10085000EF91BF91AF919F918F917F916F915F9138
:100860004F913F912F910F900BBE0F900FBE0F90A5
:100870001F9018951F920F920FB60F9211240BB66E
:100880000F922F938F939F93EF93FF93E0915B02CF
:10089000F0915C028081E0916102F091620282FD40
:1008A00012C09081809164028F5F8F7320916502E6
:1008B000821751F0E0916402F0E0E55BFD4F958F07
:1008C0008093640201C08081FF91EF919F918F918D
:1008D0002F910F900BBE0F900FBE0F901F90189589
:1008E0001F920F920FB60F9211242F933F938F9365
:1008F0009F93AF93BF9380913D0290913E02A09150
:100900003F02B091400230913C0223E0230F2D378B
:1009100020F40196A11DB11D05C026E8230F029603
:10092000A11DB11D20933C0280933D0290933E0295
:10093000A0933F02B0934002809141029091420205
:10094000A0914302B09144020196A11DB11D809374
:10095000410290934202A0934302B0934402BF919C
:10096000AF919F918F913F912F910F900FBE0F905C
:100970001F901895EBE4F2E01382128288EE93E068
:10098000A0E0B0E084839583A683B78384E092E0FF
:100990009183808385EC90E09587848784EC90E058
:1009A0009787868780EC90E0918B808B81EC90E03C
:1009B000938B828B82EC90E0958B848B86EC90E01D
:1009C000978B868B118E128E138E148EE8EEF2E0CA
:1009D0001682178210861186128613861486158653
:1009E00016861786108A118A128A138A148A158A23
:1009F0000895789484B5826084BD84B5816084BD97
:100A000085B5826085BD85B5816085BD80916E00AC
:100A1000816080936E0010928100809181008260DD
:100A2000809381008091810081608093810080911A
:100A300080008160809380008091B1008460809309
:100A4000B1008091B00081608093B00080919100EE
:100A500082608093910080919100816080939100E9
:100A6000809190008160809390008091A1008260CD
:100A70008093A1008091A10081608093A10080916A
:100A8000A00081608093A00080912101826080930A
:100A900021018091210181608093210180912001B9
:100AA00081608093200180917A00846080937A0035
:100AB00080917A00826080937A0080917A008160D0
:100AC00080937A0080917A00806880937A001092F7
:100AD000C10010922C0310922D0310922E0310923D
:100AE0002F031092EA021092EB021092EC02109285
:100AF000ED028ADD6B017C014B015C0128EB820E6B
:100B00002BE0921EA11CB11C7FDD6C157D058E05AE
:100B10009F0528F086169706A806B906A8F78BE465
:100B200092E090932B0380932A03AEDB6DDD6093FC
:100B3000EA027093EB028093EC029093ED0262E183
:100B400072E080912A0390912B036BDD5DDD6B01D8
:100B50007C014B015C013AE0830E911CA11CB11C8D
:100B600053DD6C157D058E059F0528F086169706CA
:100B7000A806B906A8F781E08093FE02E9EEF1E04D
:100B80002491E3EAF1E084918823C1F090E0880F9A
:100B9000991FFC01EE57FE4FC591D491FC01E85915
:100BA000FE4FA591B4919FB7F8948881E22FE0950C
:100BB0008E2388838C91E823EC939FBF65DB84EFC1
:100BC000882E99249394A12CB12C1EDD672B682BC1
:100BD000692B39F419DD623071058105910508F43E
:100BE000FCC012DDC0904702D0904802E09049025C
:100BF000F0904A026C157D058E059F0540F46093C8
:100C00004702709348028093490290934A02C09031
:100C10004702D0904802E0904902F0904A029B01BE
:100C2000AC012C193D094E095F0969017A013AEFBF
:100C3000C316D104E104F10408F4CFC06093470265
:100C4000709348028093490290934A028092F60280
:100C50009092F702A092F802B092F9021092FA0272
:100C60001092FB021092FC021092FD028091EE02A3
:100C70009091EF02A091F002B091F1028093F20204
:100C80009093F302A093F402B093F502BDDC60935D
:100C9000EE027093EF028093F0029093F102B4DCC5
:100CA0006093EA027093EB028093EC029093ED0262
:100CB000ABDC6B017C0164E272E080912A039091CD
:100CC0002B03AFDC2AE041E050E060E070E080916F
:100CD0002A0390912B03BADC6BE272E080912A0325
:100CE00090912B039EDC2AE0B701A60180912A0394
:100CF00090912B03ABDC6DE272E080912A0390911E
:100D00002B038FDC8091EE029091EF02A091F00214
:100D1000B091F102B701A601481B590B6A0B7B0B7E
:100D20002AE080912A0390912B0390DC6DE272E01F
:100D300080912A0390912B0374DC4091EE02509134
:100D4000EF026091F0027091F1028091F2029091B5
:100D5000F302A091F402B091F502481B590B6A0B03
:100D60007B0B2AE080912A0390912B036FDC6FE2CA
:100D700072E080912A0390912B0353DC45DCAB0198
:100D8000BC012AE080912A0390912B035FDCE09064
:100D90002A03F0902B0361E372E0C70142DC61E2B9
:100DA00072E0C7013EDC30DC6B017C012B013C01B1
:100DB00045E0440E511C611C711C26DC6C157D0540
:100DC0008E059F0508F049C01FDC6093EE0270930A
:100DD000EF028093F0029093F1028BE492E0DBDA71
:100DE000059709F037C08BE492E0B3DAC82F8093FF
:100DF000460261E070E080E090E0CEDB8BE492E0C0
:100E0000A8DA61E070E080E090E0C6DB8BE492E07D
:100E1000A0DA61E070E080E090E0BEDB8BE492E07D
:100E200098DA61E070E080E090E0B6DB8BE492E07D
:100E300090DAC13061F028F0C23061F410924502BE
:100E400009C068E372E08BE492E0EBDB03C0C0937F
:100E5000450243DC42DC43DBB8CE46165706680643
:100E6000790608F0AACFB0CFA1E21A2EAA1BBB1BAD
:100E7000FD010DC0AA1FBB1FEE1FFF1FA217B30766
:100E8000E407F50720F0A21BB30BE40BF50B661F7C
:100E9000771F881F991F1A9469F760957095809540
:100EA00090959B01AC01BD01CF010895EE0FFF1F8E
:100EB000881F8BBF0790F691E02D199481E090E098
:080EC000F89400C0F894FFCF84
:100EC8000000000002026C019A014E02CB01A90148
:100ED800BD01564D4450565F317C315F564D4450EC
:100EE800560D0A00564D4450455F003A323A007C90
:0C0EF800005F564D44504500626F6900D9
:00000001FF
